:1000000010C02AC029C028C027C026C025C024C0CF
:1000100023C070CA21C020C01FC01EC01DC01CC08C
:100020001BC011241FBECFE5D2E0DEBFCDBF10E064
:10003000A0E6B0E0E2E5F7E102C005900D92AE3631
:10004000B107D9F720E0AEE6B0E001C01D92AD3EA9
:10005000B207E1F737D87BCBD3CF3F937F939F9302
:10006000762F7095982F90953AB339233ABB3AB3CF
:1000700037233ABB3BB3382B3BBB3BB337233BBBAC
:100080003AB3362B3ABB9F917F913F9108953F93AE
:100090007F939F93762F7095982F90953AB3732303
:1000A0007ABB3AB3762B382B93233ABB3AE23A9594
:1000B000F1F700009ABB7ABB9F9189B384237F91AB
:1000C0003F9108953F939F93982F90953BB3392389
:1000D0003BBB3AB3382B3ABB9F913F910895A1E0C7
:1000E000B0E0E4E7F0E0D9CAFFB690E8F92219825F
:1000F00090916E00913019F091E090936E0090E035
:100100002EEBA22E20E0B22EA80EB91EF501D08053
:1001100086549F4FFC01C080F894DD2009F4A6C0EE
:10012000F5018081CFDF8D2D6C2D97DFED2C80E0E8
:1001300000E010E0812C90E2992E15FF07C090910D
:10014000BF002091BE00922B09F532C08FB78F29D6
:100150008FBF0000F8948D2D6C2D4E2D98DF0F5F12
:100160001F4F909160009F5F90936000923030F03D
:10017000923021F0933011F0109260008823E9F260
:100180009091BF002091BE00922B14C020E0E0FEB1
:1001900009C0E22FF0E0EE0FFF1FE958FF4F9182F8
:1001A000808201C090FD2F5F9695E694992379F7A0
:1001B00090E0EE242FB72F292FBF10926F009923C4
:1001C000D1F1EE20C1F12091BB003091BA00232B78
:1001D000582F30E070E060E040E021C050FF18C0D0
:1001E00012C020FF0FC0461761F4E32FF0E0EE0FBE
:1001F000FF1FE958FF4F11830083E52FEE7F31F099
:1002000008C06F5F2695222361F703C071E001C02B
:1002100090FD4F5F90FD3F5F5695969511F05523E9
:10022000E9F630936F008095E82280E07130D1F4D8
:10023000EE20B1F017C09091BF002091BE00922B2C
:10024000998390916F0006C0298120FD9F5F2981CD
:100250002695298329812223B9F790936F0002C044
:1002600000E010E0F894EE2009F067CFF5018081FE
:1002700029DF109270008FB78F298FBF2196ECE095
:1002800028CAFF920F931F93CF93DF938C01EB014A
:10029000FF2403C08F2D50D1F39480919500F81660
:1002A000C8F3109291001092900010937200009386
:1002B0007100CE01D0D3CDB7DEB7E5E011CAFC01A5
:1002C00080E29CE0918380831382128280E095E03B
:1002D000958384830895CF93C0E003C08C2F2CD1E5
:1002E000CF5F80919500C817C8F3CF910895109201
:1002F00095001092C20084E080938A0084E180938C
:100300008D0095E090938E0010928C0080938B006E
:10031000EAE8F0E081E0829383E08683A1D3109243
:1003200076001092750008951F93CF93DF9310927B
:10033000740010927300409190005091910090933E
:100340009100809390002091920030919300241BA3
:10035000350B280F391FC0E003C0285C3040CF5F49
:10036000283C3105D0F73093930020939200809180
:100370009400882341F08C1718F41092940003C065
:100380008C1B809394007DD3E0917500F0917600F2
:10039000309709F0099510E0D0E005C08D2F6C2F43
:1003A000DDD0182BDF5F50919500D517B8F31123DE
:1003B00049F0809173009091740091609093740063
:1003C0008093730010928700A6E9B0E040E081E0DE
:1003D00090E018C02C91287199F0E42FE695E695ED
:1003E000E695F0E0E958FF4F242F2770BC0102C0CA
:1003F000660F771F2A95E2F79B013089322B308BED
:100400004F5F1896451731F78091730090917400F3
:10041000DF91CF911F91089590919500E92FF0E021
:1004200033E0EE0FFF1F3A95E1F7EA56FF4F4383A3
:100430006770858386832370660F660F660F262B91
:1004400024839F5F909395000895A1E0B0E0EAE2D5
:10045000F2E029C9082F10E063E0000F111F6A9530
:10046000E1F7F801EA56FF4F6581438150E00090C3
:10047000890002C0559547950A94E2F7443008F484
:1004800044E090919500891778F556E9E52E50E003
:10049000F52EE00EF11EF7019481292F207CF9F44E
:1004A000862F4983C2D24981242F30E04695469554
:1004B00050E0421B530B4817590724F4F7014481BD
:1004C0004B7F4483309521953F4F2817390774F0AF
:1004D000F801EA56FF4F24812460248307C09B7FE4
:1004E000F7019483F3D302C080E090E02196E6E028
:1004F000F6C8E82FF0E083E0EE0FFF1F8A95E1F7E2
:10050000EA56FF4F2581368182E080838091730017
:1005100090917400826090937400809373001282B3
:10052000822F90E806C0E82FF0E0EA54FF4F908356
:100530008F5F3817C0F70895CF93C82FDADFEC2FFD
:10054000F0E093E0EE0FFF1F9A95E1F7EA56FF4FB8
:1005500081E080838FE08183CF9108954F925F92F5
:100560006F927F928F929F92AF92BF92DF92EF92A3
:10057000FF920F931F93CF93DF930F92CDB7DEB708
:10058000182FE62E62DF4C01A12EBB2463E0AA0CDB
:10059000BB1C6A95E1F7F501EA56FF4F44812381C0
:1005A00030E0842F837090E00196B90102C0759508
:1005B00067958A95E2F7CB01623008F482E0B901D1
:1005C000681B7109F501EA56FF4F8081843009F4F8
:1005D000D3C0853030F4813071F0823009F012C21E
:1005E00056C0803109F45CC1803209F4E3C188301F
:1005F00009F008C2B3C120917300309174003260D9
:10060000658176817F010894E11CF11C2BC0F70104
:100610008081E62FF0E0DF01AA0FBB1FA158BF4F7A
:100620008A3038F0EE0FFF1FE958FF4F808191812B
:1006300014C04D915C911197EE0FFF1FE958FF4FC9
:10064000808191818417950718F4CA01019705C02C
:100650004817590730F4CA01019611969C938E935E
:1006600028606F5F761798F63093740020937300BC
:10067000F501EA56FF4F818181508183882311F46F
:10068000812F37DF80918B0080939400B3C142FFAC
:1006900008C0A581B0E0AA54BF4F1C9280E28083BD
:1006A000A0C1C40197FE02C080E090E082179307CA
:1006B00038F0F501EA56FF4F84E0808312829CC136
:1006C000EE2009F49FC180919400882309F09AC11B
:1006D000F501EA56FF4F2581D68030918E003058C3
:1006E00000E8A02E80918D00A81A6091730070918F
:1006F000740080E8882E39C0422F50E0DA01AA0F3A
:10070000BB1FA158BF4F8D919C911197FA01EE0F1D
:10071000FF1FE958FF4F00811181FA01EA54FF4F92
:100720008017910740F440814E0D40834317E0F05D
:10073000808201960AC00817190760F440814E199B
:100740004083A41688F08082019711969C938E9323
:1007500068600AC08081813810F081508083808178
:1007600087FD02C08F5F80832F5FD21628F67093BB
:1007700074006093730046C1C40197FE02C080E01C
:1007800090E08217930708F423C180918B00809337
:100790009400F501EA56FF4F82818F5F8283848146
:1007A00090E08873907063E0969587956A95E1F77D
:1007B000D82E8823B1F548C0011789F1402E552461
:1007C00043E0440C551C4A95E1F766E970E0460E9B
:1007D000571EF201848190E08873907053E09695E3
:1007E00087955A95E1F7D816D1F4802F29832DDE0D
:1007F000F2013381AC01431B5109F3018081B40143
:10080000681B710929816417750734F0F201808132
:10081000803111F0883019F4F701108221E00F5F68
:100820000CC020E000E033E0632E712C6E0E7F1EC2
:100830007F0162E070E0E60EF71E809195000817D8
:1008400008F4BACF222379F480918A00882359F0E2
:1008500080917300909174009860909374008093DD
:10086000730001E001C000E0F501EA56FF4F9281FC
:1008700080918A00981708F4C6C0209173003091C7
:1008800074002360309374002093730080E18083B0
:1008900011828481807C09F4B6C0812F83D3B3C0D8
:1008A000209173003091740042FF0EC0A581B0E02A
:1008B000AA54BF4F80E88C9380E2808330613093EC
:1008C00074002093730042C0C40197FE02C080E010
:1008D00090E08617970758F4F501EA56FF4F88E035
:1008E0008083809173009091740094602BC021608C
:1008F0003093740020937300F501EA56FF4F828114
:1009000090918A00891710F48F5F8283F501EA566F
:10091000FF4F8481807C11F0812F19D290918C003F
:100920009923B1F0F501EA56FF4F8181891718F438
:10093000E80EE1820DC0812FFFDD80917300909160
:1009400074009260909374008093730001E001C082
:1009500000E080918B008093940055C080918B00C3
:10096000809394008281882399F1C40197FE02C08C
:1009700080E090E02091730030917400681779074F
:1009800060F4F501EA56FF4F80E1808321603093E7
:1009900074002093730000E006C03460309374004C
:1009A0002093730001E0F501EA56FF4F82818150E8
:1009B000828329C0A581B0E0AA54BF4F8C918F5F7C
:1009C0008C9342FD08C087FF03C080E180831AC07A
:1009D000812F8FDD17C090918F00891768F0812FCC
:1009E000ABDD8091730090917400906190937400DE
:1009F0008093730001E007C08091730090917400B0
:100A00009460F4CF00E0802F0F90DF91CF911F9181
:100A10000F91FF90EF90DF90BF90AF909F908F90DD
:100A20007F906F905F904F90089590E0FC01349616
:100A300027E730E0EE0FFF1FE20FF31FDC01AA0FE4
:100A4000BB1FA20FB31F808191812D913C91119703
:100A5000821B930B0895009711F0FC0109950895EE
:100A60001092BE001092BF001092BA001092BB000C
:100A70001092C0001092C1001092BC001092BD00F4
:100A800008958091C0009091BE00892B41F0E091C3
:100A90007100F0917200309711F080E0099580911B
:100AA000C1009091BF00892B41F0E0917100F0915D
:100AB0007200309711F081E009950895EF920F933D
:100AC0009E2DE0919500F0E033E0EE0FFF1F3A9588
:100AD000E1F7EA56FF4F43833091C2003783277016
:100AE000858366839370220F220F220F922B9483AB
:100AF000832F90E063E070E0A6D5FC01ED53FF4F3B
:100B00000295000F007E02833F5F3093C2000F9179
:100B1000EF9008959C016115710521F14F5F03C0AD
:100B20004150220F331F37FD06C04423C9F703C0CD
:100B30004F5F660F771F77FFFBCF80E090E00BC021
:100B4000880F991F41502617370718F0261B370BBF
:100B5000019676956795442339F097FFF1CF8FEF93
:100B60009FEF08958FEF9FEF08956F927F928F927E
:100B70009F92AF92BF92CF92DF92FF920F931F93FB
:100B8000CF93DF93F82EC82FD0E04E010894811C3C
:100B9000911C8E010C5F1F4FB7E7CB2EB0E0DB2E10
:100BA000000F111F0C0D1D1DF801A080B180FE016A
:100BB0003596EE0FFF1FEC0DFD1D80819181B50173
:100BC0004CE0A8DFBC01F401EE0FFF1FEC0DFD1D92
:100BD000808191814CE09EDF3C0132E0832E912C9C
:100BE0008C0E9D1EFE013696EE0FFF1FEC0DFD1DB7
:100BF00080819181B5014CE08DDFBC01F401EE0FE5
:100C0000FF1FEC0DFD1D808191814CE083DFEC0125
:100C10008F2D0BDF9093C7008093C600F801808171
:100C200091819C01261937093093C9002093C8008F
:100C30008C1B9D0B9093CB008093CA00DF91CF91CA
:100C40001F910F91FF90DF90CF90BF90AF909F903A
:100C50008F907F906F900895EF920F93342F902F85
:100C60000E2D422F232FE92E29DF90919500E92F99
:100C7000F0E063E0EE0FFF1F6A95E1F7EA56FF4FE1
:100C80008481806484839F5F909395000F91EF909F
:100C90000895EF920F93342F902F0E2D422F232F74
:100CA000E92E0CDF90919500E92FF0E073E0EE0F54
:100CB000FF1F7A95E1F7EA56FF4F848180688483AD
:100CC0009F5F909395000F91EF9008951F93CF939E
:100CD000DF93182F862FC42F48DF8091C600909194
:100CE000C7002091C8003091C900F22FE32F82176E
:100CF000930714F4F82FE92F6091CA007091CB008C
:100D00004F2F5E2F641775070CF4AB01820F931FF2
:100D1000860F971FD0E0D095C195DF4FC817D90730
:100D200064F0E12FF0E0A3E0EE0FFF1FAA95E1F7DA
:100D3000EA56FF4F248124602483841B950B841B77
:100D4000950B841B950BDF91CF911F910895A0E027
:100D5000B0E0ECEAF6E0A2C4082F10E073E0000F68
:100D6000111F7A95E1F7F801EA56FF4FC780DD249D
:100D7000C60163E070E067D4DC01AD53BF4F12964B
:100D8000EC908581F2DE6091C6007091C700809181
:100D9000C8009091C900E091CA00F091CB0068179B
:100DA00079074CF08E179F0784F4AB019C01BF01BB
:100DB000C0E0D0E010C09F01E617F7074CF0AF018C
:100DC0009B01BC01C0E0D0E206C0AC019F0101C0A4
:100DD000AC01C0E0D0E1640F751F621B730B621B96
:100DE000730BCA01821B930B4CE094DEC80FD91F12
:100DF000F801EA56FF4F048110E0007C10700038C3
:100E0000110581F4CE01875692402BE2823392077E
:100E100008F0C4C087E0C333D80708F4B6C0C25393
:100E2000D740B5C06FEFA62E6FE2B62E80E090E3FC
:100E30002E2D229526952770322F3F5FE12C51E011
:100E4000F52E02C0F694E7942F5F2830D8F39E2C3D
:100E50009A94B701353018F4660F771F04C0373005
:100E600010F07695679540E055DEDC010034110501
:100E7000F9F4C60163E070E0E6D3FC01ED53FF4FE7
:100E80008081918128E18030920740F08050984124
:100E9000C817D90768F4C050D04D0AC09C01205033
:100EA000384E2C173D0720F48050904D918380835D
:100EB000C60163E070E0C7D3FC01ED53FF4F9281A0
:100EC00090FF05C09E7F9283A0E0B0E006C091FF36
:100ED00004C09D01A0E0B0E002C020E030E0C60107
:100EE00063E070E0B0D3FC01ED53FF4F40815181CE
:100EF000240F351FC217D30718F082818D7F08C0D9
:100F0000CD018C0F9D1F4817590728F08281826000
:100F10008283D183C083C60163E070E094D3FC0177
:100F2000ED53FF4F8081918120E38030920720F0C4
:100F30008050904391838083C501B70140E0EADD92
:100F40009C01C60163E070E07ED3FC01ED53FF4FCE
:100F500080819181B90140E0DDDD492D50E09C01A7
:100F60004817590708F49A01F601E958FF4F81899B
:100F70008217A1F0218B809173009091740084609E
:100F8000909374008093730009C0C0E0D0E0BBE987
:100F9000AB2EB1E2BB2E8BE991E24ACFCDB7DEB7E3
:100FA000EBE098C3E82FF0E0A3E0EE0FFF1FAA9557
:100FB000E1F7EA56FF4F478123EC30E0842F90E0C1
:100FC00063E070E040D3F901E80FF91F842F90E04F
:100FD00063E070E038D3280F391FD90112968C9145
:100FE00012978160828308952FEF89E698E121505E
:100FF00080409040E1F700C00000089581E09091AA
:101000008700911101C080E00895F8DF882339F04E
:1010100080918800829586958695837096C18AC155
:10102000CF93DF93C4E0D0E041D12FE78AE196E08F
:10103000215080409040E1F700C000003ED12FE7F2
:101040008AE196E0215080409040E1F700C0000026
:10105000219751F732D160E070E084E035D12FEF75
:1010600080E792E0215080409040E1F700C000000E
:1010700061E070E084E028D12FEF80E792E021501A
:1010800080409040E1F700C0000060E070E084E044
:101090001BD12FEF80E792E0215080409040E1F794
:1010A00000C0000061E070E084E00ED12FEF80E727
:1010B00092E0215080409040E1F700C00000DF91B5
:1010C000CF91089575D20AD27BD2E9D0C1D078945D
:1010D000A7DFCCD0EC01F1D02F97A7D296DF8EDF1F
:1010E000882351F18091880082958695869583703A
:1010F000E091DC007091DD006091DE005091DF0036
:101100004091E0003091E1002091E2009091E300F5
:10111000E093D4007093D5006093D6005093D7002D
:101120004093D8003093D9002093DA009093DB00ED
:1011300090E0A2D1982E01C0912C2091DC0030913A
:10114000DD004091DE005091DF006091E000709181
:10115000E1008091E2009091E300A090D400B09073
:10116000D500C090D600D090D700E090D800F09085
:10117000D9000091DA001091DB00CCD2283E334038
:1011800041055105610571058105910511F008F0D2
:101190006AD1992031F067D164EF77E08FEB99E065
:1011A00097D164D0C817D90708F497CF2091DC00F5
:1011B0003091DD004091DE005091DF006091E00051
:1011C0007091E1008091E2009091E300A090CC004A
:1011D000B090CD00C090CE00D090CF00E090D00075
:1011E000F090D1000091D2001091D30093D220331F
:1011F000354741055105610571058105910509F0E6
:1012000008F46BCF64EF77E08FEB99E064D17091D5
:10121000DC006091DD005091DE004091DF003091F4
:10122000E0002091E1009091E2008091E300709352
:10123000CC006093CD005093CE004093CF0030930C
:10124000D0002093D1009093D2008093D30045CF5B
:1012500082EA87B987E886B913B80895369A36992D
:10126000FECF84B125B190E0922B08950F931F9388
:10127000CF93DF9300E210E0C0E0D0E0EFDFC80FD3
:10128000D91F01501109D1F7CE0125E09695879518
:101290002A95E1F7DF91CF911F910F91089580E397
:1012A0008ABB87E087BB1BBA18BA08958BB38063EB
:1012B0008BBB88B3876088BB08958BB38F7C8BBB57
:1012C00088B3887F88BB0895823059F028F488233A
:1012D00061F0813061F00895833069F0843019F055
:1012E000089582E005C084E007C080E001C081E08D
:1012F000E8E3F0E003C085E0EBE3F0E0672B61F0AA
:10130000408121E030E0B90102C0660F771F8A9565
:10131000E2F7CB01842B0CC0408121E030E0B90121
:1013200002C0660F771F8A95E2F7CB018095842370
:1013300080830895CF93C0E060E070E08C2FC4DF1D
:10134000CF5FC430C9F7CF9108950F931F93CF9308
:10135000DF93C0E0D0E0082F10E061E070E00C17F0
:101360001D0711F060E070E08C2FAEDF2196C430D5
:10137000D10599F7DF91CF911F910F910895CF93E8
:10138000C82F682F617070E080E09EDF6C2F627064
:1013900070E081E099DF6C2F647070E082E094DF90
:1013A0006C2F687070E083E08FDF6C2F70E084E05A
:1013B000CF918ACFCF92DF92EF92FF920F931F933C
:1013C000CF93DF937C01EB018B01FE0101900020A4
:1013D000E9F73197EC1BFD0BC8018C1B9D0B8E1799
:1013E0009F07C0F56801F80181918F0182958F7088
:1013F000F7010995FFEF29E688E1F1502040804090
:10140000E1F700C0000080E0F7010995FFEF24E359
:101410008CE0F15020408040E1F700C00000F60170
:1014200080818F70F7010995FFEF29E688E1F1507F
:1014300020408040E1F700C0000080E0F7010995FE
:10144000FFEF24E38CE0F15020408040E1F700C042
:101450000000BBCFDF91CF911F910F91FF90EF90D4
:10146000DF90CF9008951092EC001092EB00109254
:10147000EA001092E90008959C01E091EB00F091E0
:10148000EC00CF01019664E070E0EED08217930784
:1014900051F48091E9009091EA0001969093EA005E
:1014A0008093E90007C0E217F30721F01092EA00E9
:1014B0001092E9003093EC002093EB0081E0209142
:1014C000E9003091EA00203131050CF480E0089504
:1014D00063E670E06FCF68E670E06CCF8FE386BFA5
:1014E00089B7826089BF83B7836083BF80B782601A
:1014F00080BF08951F920F920FB60F9211242F9361
:101500003F934F935F936F937F938F939F93AF938B
:101510008091E7009091E80001969093E800809315
:10152000E70020916100309162008217930738F044
:101530001092E8001092E70081E08093E60080912D
:10154000E4009091E50001969093E5008093E4001B
:101550002091DC003091DD004091DE005091DF00F1
:101560006091E0007091E1008091E2009091E300D1
:10157000A1E0C4D02093DC003093DD004093DE0076
:101580005093DF006093E0007093E1008093E200ED
:101590009093E300AF919F918F917F916F915F91B5
:1015A0004F913F912F910F900FBE0F901F90189564
:1015B00080E886BD81E086BD85B7806485BF0895DB
:1015C000CF92EF920F93EEEBF0E085E480831182EF
:1015D00012821382EAEBF0E08AE8808311821282A1
:1015E0001382C12C87E0E82E01E02AE040E062E0AF
:1015F00080E032DB60E070E08FE690E042D6E9E820
:10160000F0E084E0818384E1848395E09583138214
:10161000828381E080838AE0868310927600109234
:1016200075000F91EF90CF9008958091E600882388
:1016300049F01092E6008091E4009091E50074D6A4
:1016400090FDF9CF08950024552704C0080E591FB6
:10165000880F991F009729F076956795B8F3710563
:10166000B9F7802D952F089597FB072E16F4009457
:1016700006D077FD08D057D007FC05D03EF49095F2
:1016800081959F4F0895709561957F4F08952F9292
:101690003F924F925F926F927F928F929F92AF9202
:1016A000BF92CF92DF92EF92FF920F931F93CF934F
:1016B000DF93CDB7DEB7CA1BDB0B0FB6F894DEBFE6
:1016C0000FBECDBF09942A88398848885F846E840C
:1016D0007D848C849B84AA84B984C884DF80EE8056
:1016E000FD800C811B81AA81B981CE0FD11D0FB65F
:1016F000F894DEBF0FBECDBFED0108950024A7FD15
:1017000000942A0F301D401D501D601D701D801D4E
:10171000901D08952A193B094C095D096E097F093E
:10172000800B910B0895AA1BBB1B51E107C0AA1F98
:10173000BB1FA617B70710F0A61BB70B881F991F72
:101740005A95A9F780959095BC01CD010895F8941C
:02175000FFCFC9
:0E175200013200514D4954004C364D560000F6
:00000001FF
